:020000040800F2
:10000000600B0020413D00089D1200084B3D000898
:100010009F120008A3120008A712000800000000A9
:10002000000000000000000000000000AB1200080B
:10003000AD12000800000000573D0008AF12000894
:100040005B3D00085B3D00085B3D00085B3D000830
:100050005B3D00085B3D00085B3D00085B3D000820
:100060005B3D00085B3D00085B3D00085B3D000810
:100070005B3D00085B3D00085B3D00085B3D000800
:100080005B3D00085B3D00085B3D00085B3D0008F0
:100090005B3D00085B3D00085B3D00085B3D0008E0
:1000A0005B3D00085B3D00085B3D00085B3D0008D0
:1000B0005B3D00085B3D00085B3D00085B3D0008C0
:1000C0005B3D00085B3D00085B3D00085B3D0008B0
:1000D0005B3D0008B71200085B3D00085B3D00086F
:1000E0005B3D00085B3D00085B3D000800F002F846
:1000F00000F03CF80AA090E8000C82448344AAF186
:100100000107DA4501D100F031F8AFF2090EBAE883
:100110000F0013F0010F18BFFB1A43F0010318473B
:10012000D4610000F4610000103A24BF78C878C19F
:10013000FAD8520724BF30C830C144BF04680C60ED
:10014000704700000023002400250026103A28BF35
:1001500078C1FBD8520728BF30C148BF0B60704739
:100160001FB504F0E7FA1FBD10B510BD04F008FB81
:100170001146FFF7F5FF00F009F804F026FB03B481
:10018000FFF7F2FF03BC04F027FB000001F03AF890
:10019000044800F018FD044800F04FFE01E000F0B4
:1001A0002BF8FCE704000020280100200122427205
:1001B000704700B50148FFF7F9FF00BD6C00002053
:1001C00010B52C4800F056F910BD10B52A4800F0C3
:1001D0003DFE294800F0E5FE10BD10B5254800F0B1
:1001E000D8F910BD10B5234800F0D8FA10BD10B5ED
:1001F000224800F00DF910BD10B5204800F042F87B
:100200001F480088012804DBFFF7DAFF00201C49A3
:1002100008801B484088022804DBFFF7D6FF002037
:100220001749488016488088052804DBFFF7D5FF6A
:100230000020134988801248C0880A2804DBFFF791
:10024000D1FF00200E49C8800D4800891E2804DB1C
:10025000FFF7CDFF00200A49088110BD0021018170
:10026000C180818041800180704700B50448FFF75C
:10027000F5FF00BDB800002028010020820000200A
:100280007800002010B504466D48007850B1002079
:100290006B4908706B48C078401DC2B269496A4812
:1002A00001F087F96948007860B10020674908705B
:1002B000644890F82300401DC2B262492031624870
:1002C00001F077F9604801F0DAF910BD70B5044625
:1002D0000E4615462A46611C5B4801F053F970BD75
:1002E00070B504460025AA2229466D1C601C4254A4
:1002F000AF2229466D1C4254032229466D1C4254EC
:10030000002229466D1C42545148C27929466D1C71
:10031000601C42544E48827929466D1C601C425430
:100320004B48427929466D1C601C4254484802796A
:100330002846691CCDB2611C0A54454842782846BB
:10034000691CCDB2611C0A54414802782846691CD8
:10035000CDB2611C0A543E48C2782846691CCDB211
:10036000611C0A543A4882782846691CCDB2611C47
:100370000A543748427A2846691CCDB2611C0A5497
:100380003348027A2846691CCDB2611C0A543048B1
:10039000C27A2846691CCDB2611C0A542C48827A64
:1003A0002846691CCDB2611C0A542948427B284664
:1003B000691CCDB2611C0A542548027B2846691C81
:1003C000CDB2611C0A542248C27B2846691CCDB2BA
:1003D000611C0A541E48827B2846691CCDB2611CF0
:1003E0000A54281F20710026002005E0611C095CCA
:1003F0003144CEB2411CC8B2A842F7DB2846691C82
:10040000CDB2611C0E542A462046FFF75FFF70BD37
:1004100010B504460F480078012800D102E0012001
:10042000207000BF00BF0B480078401C09490870CD
:10043000207820B1002020702046FFF751FF10BD2A
:100440002C00002056040020580100202D00002020
:10045000B800002000000020FD490162FD4A426210
:10046000FD4A8262704700B503461846FFF7F4FF65
:10047000184600BD2DE9FC5F0446F849C88805F020
:100480002BFC834605F072FA0746F54AF54B05F05A
:1004900085F881468A46206A05F068FA0746F24ADE
:1004A000F24B05F07BF805464A46534604F08AFFB6
:1004B000CDE9000104F054FF2062E849888805F086
:1004C0000BFC834605F052FA0746E54AE54B05F07A
:1004D00065F805460E46606A05F048FA0746E24AA6
:1004E000E24B05F05BF82A463346CDE9000104F003
:1004F00069FF814604F034FF6062D849488805F0FE
:10050000EBFB834605F032FA0746D54AD54B05F09A
:1005100045F805460E46A06A05F028FA0746D24A75
:10052000D24B05F03BF82A463346CDE9000104F0F2
:1005300049FF814604F014FFA062C849088805F00D
:10054000CBFB834605F012FA0746C54AC54B05F0BA
:1005500025F881468A46E06A05F008FA0746C24A4D
:10056000C24B05F01BF805464A46534604F02AFFE5
:10057000CDE9000104F0F4FEE062B849488905F0D5
:10058000ABFB6064B549888905F0A6FBA064BDE8B3
:10059000FC9F2DE9FC5F8246B548407A002854D084
:1005A0004FF08041DAF8200005F080FA0646B149A4
:1005B00005F008FD0546B04905F004FA044605F0CB
:1005C00053FBBAF81010401AAAF80000BAF800104D
:1005D000A1F2DC5004F0CBFF80464FF03332A74B42
:1005E00004F0DCFF06460022A54B04F0EBFE0446B7
:1005F00004F090FFAAF800004FF08041DAF82400E0
:1006000005F054FA05469F4905F0DCF9044605F06B
:100610002BFBBAF81210401AAAF80200BAF802101E
:10062000494201F2DC5004F0A2FF80460022964BC2
:1006300004F0B4FF06460022914B04F0C3FE0446CA
:1006400004F068FFAAF8020047E08948807A002891
:1006500043D08E4908688E4905F086FB834605F035
:10066000E7FA0FFA80F94FF4FA725142484600F067
:100670001CFD804604F07BFF0646864A864B04F04C
:100680008DFF00227E4BCDE9000104F09BFE044665
:1006900004F040FFAAF800007C4948687C4905F056
:1006A00063FB009005F0C4FA00B24FF4FA725142B5
:1006B000019000F0FAFC834604F059FF8046754A29
:1006C000754B04F06BFF064600226D4B04F07AFE7A
:1006D000044604F01FFFAAF802004FF08041DAF848
:1006E000280005F0E3F90646624905F06BFC054673
:1006F0006A4905F067F9044605F0B6FABAF814102D
:10070000401AAAF80400BAF80410A1F2DC5004F070
:100710002EFF064600225C4B04F040FF04460022F8
:10072000574B04F04FFE804604F0F4FEAAF8040094
:100730004FF08041DAF82C0005F0B8F90546584929
:1007400005F040F9044605F08FFABAF81610401A81
:10075000AAF80600BAF80610494201F2DC5004F08B
:1007600006FF80464B4A4F4B04F018FF0646002216
:10077000434B04F027FE044604F0CCFEAAF8060022
:10078000DAF8440005F070FAAAF84000DAF84800F8
:1007900005F06AFAAAF84200BDE8FC9F10B50446CD
:1007A0004148007820B140480078401E3E4908701A
:1007B000B4F8400064281FDA3C480078E0B13A48B9
:1007C000007810B90A2038490870B4F8400064284D
:1007D00011DA3648007800280DD033480078012817
:1007E00009D1E08A801E01B2E182314800F0F1F9BE
:1007F00000202E490870CCE0B4F8400040F65A21A1
:1008000088425DDDB4F8400040F62231884257DA74
:1008100026480078D8B12448007810B90A20224927
:100820000870B4F8400040F65A21884247DDB4F819
:10083000400040F62231884241DA1B480078012806
:100840003DD1A08A801C01B2A182194832E037E074
:1008500000C0F7440000094500000E459604002042
:100860007B14AE47E17A843FAE47E17A14AEEF3FA6
:100870006C00002000007A4400A0BA443333E33F08
:10088000007097400000CC430000E03F28010020AA
:10089000000020419A9999999999E93F00A0CC4488
:1008A0000080BE439999E13F030000200100002031
:1008B0000400002000F08DF90020A849087068E0CD
:1008C000B4F8400040F29E71884229DDB4F840003F
:1008D00040F66601884223DAA048007800B3A048B9
:1008E000007810B90A209E490870B4F8400040F220
:1008F0009E7188424DDDB4F8400040F666018842A2
:1009000047DA97480078012843D1E08A801C01B279
:10091000E182944800F05DF900209049087038E0C9
:10092000B4F8400040F68631884229DDB4F8400032
:1009300040F64E41884223DA8848007800B3884860
:10094000007810B90A2086490870B4F8400040F6D3
:10095000863188421DDDB4F8400040F64E418842A1
:1009600017DA7F480078012813D1A08A801E01B2CF
:10097000A1827C4800F02DF900207849087008E039
:10098000B4F8400040F6D271884202DD012073497C
:100990000870B4F8420064281FDA73480078E0B1A8
:1009A0006F48007810B90A206D490870B4F8420009
:1009B000642811DA6C48007800280DD06848007867
:1009C000012809D1608A801E01B26182654800F069
:1009D00000F9002064490870BAE0B4F8420040F61B
:1009E000863188422DDDB4F8420040F64E418842FF
:1009F00027DA5D48007820B35948007810B90A20FA
:100A000057490870B4F8420040F68631884217DD35
:100A1000B4F8420040F64E41884211DA524800785C
:100A200000280DD04E480078012809D1208A801E68
:100A300000B220824B4800F0CCF800204A490870F0
:100A400086E0B4F8420040F29E7188422CDDB4F892
:100A5000420040F66601884226DA4348007818B31F
:100A60003F48007810B90A203D490870B4F84200A8
:100A700040F29E7188426BDDB4F8420040F6660198
:100A8000884265DA38480078F0B3354800780128A4
:100A90005ED1608A801C01B26182324800F099F810
:100AA00000203149087053E0B4F8420040F65A2162
:100AB00088422EDDB4F8420040F62231884228DA1E
:100AC0002948007828B32648007810B90A2024491C
:100AD0000870B4F8420040F65A21884238DDB4F874
:100AE000420040F62231884232DA1F48007858B17D
:100AF0001B48007801282BD1208A801C00B220825C
:100B0000184800F066F800E022E00020164908705E
:100B10001EE0B4F8420040F6165188420FDDB4F8EA
:100B2000420040F67A51884209DA0F48007830B125
:100B30000B48007810B90A200949087008E0B4F899
:100B4000420040F6D271884202DD01200649087059
:100B500010BD00B50548FFF786FC00BD0100002070
:100B6000030000200400002002000020B800002044
:100B70001CB5044628494888694600F061FE2649AC
:100B800088880DF1020100F05BFE2349C88801A9A5
:100B900000F056FE204908890DF1060100F050FED4
:100BA000002007E03DF810100AB21C4921F810207F
:100BB000411CC8B20428F5DB1CBD10B50446204614
:100BC000FFF7D6FF10BD10B504462046FFF7F5FF2E
:100BD00010BD10B50446114A103A128A91B20E4A5D
:100BE000508800F0D1FF0D4A103A528A91B20A4A59
:100BF000908800F0C9FF094A103A928A91B2064AD9
:100C0000D08800F0C1FF054A103AD28A91B2024A58
:100C1000108900F0B9FF10BDB2620008C8000020C2
:100C20002DE9F04781460C4615462946634805F0F4
:100C30009BF8804641464FF07E5004F037FF074650
:100C4000214604F0BFFE06463146204604F02EFF42
:100C5000BDE8F0875A4A0A605A4A4A605A4A8A608E
:100C600070472DE9F04107460D46144621462846B7
:100C700004F0A8FE06463146204604F017FFBDE802
:100C8000F0810FB4F0B58DB005460F461A9C224690
:100C900017A904A804F02BFB04A807C807AB07C3D7
:100CA00021464FF07E5005F01FFA0646324614A941
:100CB00001A804F01CFB01A807C80AAB07C307AAD8
:100CC0000AA9284604F02FFB0DB0F0BC5DF814FB18
:100CD0000FB470B59EB005460E4614460FA800210D
:100CE00081604160016000BF04F10C010CA8A268A2
:100CF00004F0FDFA0CA807C812AB07C304F11801F1
:100D000009A8626804F0F3FA09A807C815AB07C37D
:100D100025A906A8226804F0EAFA06A807C818ABB5
:100D200007C315AA18A903A804F0FDFA03A807C869
:100D30001BAB07C312AA1BA9684604F0BCFA9DE8C6
:100D400007000FAB07C3D4E90712A069C4E9041276
:100D5000E0600FA807C8C4E90712A0610FA807C880
:100D600085E807001EB070BC5DF814FB0FB4F0B549
:100D70008DB005460F461A9C21464FF07E5005F077
:100D8000B3F90646324617A904A804F0B0FA04A83D
:100D900007C807AB07C3224614A901A804F0A7FAA5
:100DA00001A807C80AAB07C307AA0AA9284604F086
:100DB000BAFA0DB0F0BC5DF814FB0000DB0FC940BF
:100DC0004FE2403E6808833FA725593E10B50446D0
:100DD000204600BF0446204604F0F5F9044604F11D
:100DE0000C0004F0F0F9A0F10C0404F1180004F078
:100DF000EAF9A0F1180404F1240004F0E4F9A0F1E8
:100E00002404204610BD10B5044662224FF47A71C6
:100E10007A4801F09FFB10BD10B50446784A794925
:100E20002046FFF7FDFE78490860784A754920465C
:100E3000FFF717FF7449486010BD10B504462046FF
:100E4000FFF7EAFF2046FFF7DEFF10BD3EB5044680
:100E50006A4801F04FFC694801F014FD6749684693
:100E600001F07BFD9DE80700C4E90412E0606349DE
:100E7000684601F064FD9DE80700C4E90712A0611F
:100E80003EBD7FB598B00546239E6148007810F0BE
:100E9000010F09D15E4803F0BFFC28B15D4804F0A2
:100EA00092F95B48AFF300805B48007810F0010FC7
:100EB00009D1594803F0B0FC28B1584804F083F92F
:100EC0005548AFF300805648007810F0010F0FD15D
:100ED000534803F0A1FC58B15248002213464FF08A
:100EE0008B4102604360816000BF4D48AFF30080DA
:100EF00009AC204604F067F9044604F10C0004F044
:100F000062F9A0F10C0404F1180004F05CF9A0F1FE
:100F1000180400BF414A19A906A804F004FA06A85B
:100F200007C812AB07C34FF07C5212A903A804F004
:100F3000DEF903A807C815AB07C3324615A96846F2
:100F400004F0D5F933489DE80E000EC0334819A9C6
:100F50000EC90EC02F4909A804F072F8314A09A938
:100F600006A804F056F92F4806A90EC90EC0264857
:100F70004068049020A807C801AB07C329488068CF
:100F80000090284829460CC806A8FFF7EFFE254820
:100F900006A90EC90EC029460C3804F0D5F81CB0BD
:100FA00070BD10B588B00446174800680490D4E9B5
:100FB0000702A169CDE902020191E06A0090214691
:100FC00005A8D4E90923FFF75CFE05A807C8C4E912
:100FD0000A1260620B480390D4E90A12606A8DE835
:100FE00007002046D4E90423E168FFF74AFF08B070
:100FF00010BD10B50C48FFF7E9FE10BDBC04002081
:101000000000F0416F12033B6C0000209A99993F59
:1010100010000020040100200C000020100100201E
:10102000080000201C0100202801002010B5044603
:10103000204603F0EAFB08B1002010BD4FF07E51BE
:10104000204604F05DFF01D85E48F6E75E49204681
:1010500004F056FE01D85D48EFE7204603F096FC09
:10106000EBE72DE9F04106460C461546304603F005
:10107000CCFB50B12946204604F0A4FC07464FF0B3
:101080007C5104F071FEBDE8F0812146304604F049
:1010900037FE01D22046F6E72946304604F030FFFD
:1010A00001D22846EFE73046EDE703468B4201DAEE
:1010B00008467047934201DD1046FAE71846F8E704
:1010C00003468B4201DA08467047934201DD104621
:1010D000FAE71846F8E703468B4201DA08467047FC
:1010E000934201DD1046FAE71846F8E710B50446CA
:1010F0003749204604F038FE10BD10B50446354986
:10110000204604F031FE10BD10B5044621462046AD
:1011100004F02AFE10BD2DE9F04105460C4620469C
:10112000FFF7F2FF07462846FFF7EEFF80463946F5
:1011300004F048FC064603F06DFFBDE8F0812DE9A0
:10114000F05F06460C4615462846FFF7DDFF814650
:101150002046FFF7D9FF82463046FFF7D5FF83468A
:10116000514604F02FFC8046494604F02BFC07460C
:1011700003F050FFBDE8F09F2DE9FE4F07460C46F7
:1011800015461E463046FFF7BFFF02902846FFF780
:10119000BBFF01902046FFF7B7FF00903846FFF7EE
:1011A000B3FF8346009904F00DFC8246019904F0D8
:1011B00009FC8146029904F005FC804603F02AFFF1
:1011C000BDE8FE8FDB0FC93F000080BFDB0FC9BF4A
:1011D00034FA8E3CE12E65422A480088401C294999
:1011E000088008464088401C488008468088401C8B
:1011F00088800846C088401CC88008460089401C7A
:101200000881704770B54FF4A06001F0DDFB1E4807
:1012100000684FF47A72B0FBF2F1481EB0F1807FA3
:1012200000D31BE0481E4FF0E022506150170F2200
:10123000002807DA13071D0E144B00F00F04241FBB
:101240001D5503E013071C0E114B1C5400BF00205A
:101250004FF0E02290610720106100BF00F047FFCF
:101260000C4800F0A7FC00F02BF8502203210A489C
:1012700000F0F9F800F029FF02F0B5F900F0FFFBEB
:1012800070BD0000780000205800002018ED00E03C
:1012900000E400E020A1070058010020704700BFD3
:1012A000FEE700BFFEE700BFFEE77047704710B5DE
:1012B000FFF792FF10BD10B500F0DFFC10BD00007D
:1012C00000B587B00121082001F002FF01210820AC
:1012D00001F0FEFE0121880301F007FF4FF460409A
:1012E000ADF8040001208DF8060018208DF80700E5
:1012F00001A9404801F036FC2020ADF8040001208F
:101300008DF8060010208DF8070001A9394801F07A
:1013100029FC4FF48050ADF8040001208DF8060040
:1013200010208DF8070001A9324801F01BFC4FF492
:101330008051304801F0C1FC0020ADF808004FF4A6
:101340008270ADF80A000020ADF80C00ADF80E0078
:10135000ADF810004FF40070ADF812000820ADF8A1
:1013600014000020ADF816000720ADF8180002A9FF
:10137000214802F02BFD01211F4802F0CCFD07B0EF
:1013800000BD70B505460C4600BF02211A4802F0A8
:1013900046FE0028F9D02146174802F0EDFD00BFB7
:1013A0000121154802F03BFE0028F9D0124802F056
:1013B000E5FDC0B270BD10B5044620210D4801F016
:1013C0007CFC10BD10B5044620210A4801F077FCD2
:1013D00010BD10B504464FF48051064801F06DFC75
:1013E00010BD10B504464FF48051024801F067FC6F
:1013F00010BD0000000C0140003800402DE9F04114
:1014000005460E4614462846FFF7EBFF31462846B0
:10141000FFF7B7FF074621462846FFF7B2FF2846E9
:10142000FFF7D7FF3846BDE8F0812DE9F0470746C2
:10143000884615461E463846FFF7D3FF41463846D4
:10144000FFF79FFF8146002405E0295D3846FFF73E
:1014500098FF601CC4B2B442F7DB3846FFF7B9FF0F
:101460004846BDE8F08770B505460C461646284646
:10147000FFF7A8FF05239A4A2A212846FFF7D5FF40
:101480000523984A30212846FFF7CFFF012221216A
:101490002846FFF7B3FF012222212846FFF7AEFFBF
:1014A0001A2224212846FFF7A9FF32462521284683
:1014B000FFF7A4FF0F2226212846FFF79FFF012CEC
:1014C0000AD1FF2231212846FFF798FF0F22202161
:1014D0002846FFF793FF51E0022C0AD1FF22312169
:1014E0002846FFF78BFF0E2220212846FFF786FFB4
:1014F00044E0032C21D1FF22E1212846FFF77EFFA3
:10150000FF22E2212846FFF779FF0F2220212846FB
:10151000FFF774FF50212846FFF733FF7321284659
:10152000FFF72FFF01223C212846FFF767FF062225
:101530003D212846FFF762FF20E00E2220212846A9
:10154000FFF75CFFFF22E1212846FFF757FFFF224C
:10155000E2212846FFF752FF50212846FFF711FFEE
:1015600073212846FFF70DFF01223C212846FFF793
:1015700045FF06223D212846FFF740FF2846FFF79A
:101580001AFF70BD70B506460C4615463046FFF78B
:1015900019FF0523534A2A213046FFF746FF2B4601
:1015A0002246A0213046FFF740FF3046FFF703FFF9
:1015B00070BD70B506460C4615463046FFF702FF73
:1015C0002B462246A8213046FFF72FFF3046FFF773
:1015D000F2FE70BD2DE9F0470746884615461E46C7
:1015E0003846FFF7FEFE41463846FFF7CAFE814601
:1015F000002406E000213846FFF7C3FE2855601C92
:10160000C4B2B442F6DB3846FFF7E3FE4846BDE815
:10161000F0877CB505460523324A30212846FFF77E
:1016200004FF05236A4610212846FFF7D3FF002454
:1016300008E01DF804002B49095D884200D003E052
:10164000601CC4B2052CF4DB00BF052C01D10120C5
:101650007CBD0020FCE770B504460D462046FFF730
:10166000C0FE29462046FFF78CFE00212046FFF7EA
:1016700088FE06462046FFF7ACFE304670BD70B5CA
:10168000054607212846FFF7E6FF044614F0400F01
:101690000FD060212846FFF7DEFF064633462A4674
:1016A00061212846FFF796FF3146284600F029FCC5
:1016B00000BF14F0100F07D014F0010F04D0FF2268
:1016C000E1212846FFF79AFE224627212846FFF708
:1016D00095FE07212846FFF7BEFF044670BD0000B7
:1016E0001900002014000020034606210622FA48B3
:1016F0000188FA480288A3B1012B1AD132B9A1F5A9
:101700006E40EE3800D170470120FCE739B9A2F5F0
:101710006E40EE3801D10120F5E70020F3E7AB2061
:10172000F1E709B90020EEE70AB90120EBE7AB20A9
:10173000E9E70020E7E770B5042600240120FFF761
:10174000D3FF0446AB2C06D1E34800EB8420E449E8
:101750000860AB2070BDE04800EB8420E0490860E1
:10176000601CDD49891E01EB80250CE0DC48006827
:101770000068401C02D104263046EBE7D8480068D8
:10178000001DD7490860D6480068A842EED38020E3
:10179000E0E710B50424D04801F06AFF0446042CA9
:1017A00001D0204610BD0021CB4802F064F8044669
:1017B000042C01D02046F5E7C84801F059FF044643
:1017C0002046EFE72DE9F04104460F4604250026A8
:1017D000DFF810830120FFF787FF0646AB2E01D10B
:1017E000BDE8F081701CBC49891E01EB802821E016
:1017F000BB4800680068401C17D13946B8480068EB
:1018000002F039F80546042D01D02846E8E72146C4
:10181000B3480068801C02F02EF80546B048006806
:10182000001DAF4908602846DAE7AD480068001D92
:10183000AB490860AA4800684045D9D38020CFE76B
:101840002DE9F04706460F46002545F255584FF062
:101850000109A14CA2460020FFF746FF0546AB2D2B
:1018600001D1BDE8F0879C4800EB852A9C480068C0
:10187000841E0AE0B4F80080B04505D134F8020CAB
:1018800038804FF0000904E0241F0AF1020084426E
:10189000F0D800BF4846E4E72DE9F0474FF0060ACC
:1018A000062600250027A8464FF0FF398A48B0F8E1
:1018B00000A08A4806885FEA0A0074D0A0F56E404E
:1018C000EE382AD0A0F5885011386DD146B982483B
:1018D00001F0CEFE0446042C1ED02046BDE8F08761
:1018E000A6F56E40EE3810D17B4801F0C1FE0446EB
:1018F000042C01D02046F1E70021784801F0BBFF1D
:101900000446042C08D02046E8E7FFF742FF0446CF
:10191000042C01D02046E1E7AEE07EBB002522E0AA
:101920006D48C088704931F81510884201D10FFA0E
:1019300085F94D4515D06C4931F815006B49FFF715
:101940007FFF8046B8F1010F0BD0674931F81500D1
:1019500066490988FFF736FF0746042F01D038464D
:10196000BCE7681C85B2102DDADB00215A4801F073
:1019700082FF0446042C02D02046AFE707E0574818
:1019800001F076FE0446042C1FD02046A6E7A6F5FB
:101990007F40FF3812D1514801F06AFE0446042C02
:1019A00003D020469AE711E05EE000214A4801F0AA
:1019B00062FF0446042C08D020468FE7FFF7E9FEBB
:1019C0000446042C01D0204688E755E036B9FFF7DD
:1019D000E0FE0446042C46D020467FE7A6F57F4073
:1019E000FF3807D13D4801F043FE0446042C3AD0AD
:1019F000204673E7002523E03848801D00883A49D7
:101A000031F81510884201D10FFA85F94D4515D0EE
:101A1000354931F815003549FFF712FF8046B8F116
:101A2000010F0BD0304931F8150030490988FFF714
:101A3000C9FE0746042F01D038464FE7681C85B21F
:101A4000102DD9DB0021254801F015FF0446042C98
:101A500001D0204642E7204801F00AFE0446042C4B
:101A600001D020463AE707E0FFF793FE0446042C36
:101A700001D0204632E700BF00BF04202EE710B59A
:101A8000FFF70AFF0446FFF756FE204610BD2DE97A
:101A9000F84F074689460425DFF840A0AAF1010A5D
:101AA0000D4800904FF00008002400264FF0000B76
:101AB0000020FFF719FE8046B8F1010F04D1DFF8CE
:101AC00018A00648009016E0B8F1000F10D1DFF81A
:101AD0000CA0014800900EE000000108000401087D
:101AE00024000020FF070108B26200082000002047
:101AF000AB20BDE8F88F4EF6EE61504601F0BBFE1C
:101B00000546042D01D02846F3E7FFF714FE4946A9
:101B10003846FFF757FE0646042E01D03046E8E768
:101B200000241CE0214830F81400B84215D01F49A9
:101B300031F814001E49FFF783FE8346BBF1010F05
:101B40000BD01A4931F8140019490988FFF73AFEF9
:101B50000646042E01D03046CBE7601C84B2102C20
:101B6000E0DB009801F084FD0546042D01D02846F5
:101B7000BFE70021504601F07EFE0546042D01D04E
:101B80002846B6E72846B4E770B505460E46002459
:101B900031462846FFF716FE0446802C04D1314614
:101BA0002846FFF774FF0446204670BDB262000865
:101BB0002000002010B588B004460121880301F000
:101BC00087FA0121042001F083FA25208DF8040012
:101BD00002208DF8050000208DF8060001208DF808
:101BE000070001A800F0F5FE4FF40070ADF800000A
:101BF00003208DF8020018208DF803006946D048B4
:101C000000F0B0FF4FF48060ADF8000003208DF8C5
:101C1000020004208DF803006946C94800F0A2FFC5
:101C200004940020ADF81400ADF81600ADF81800CB
:101C3000ADF81C000C20ADF81A000020ADF808002B
:101C4000ADF80A004FF40070ADF80C000020ADF8BC
:101C50000E0004A9BB4801F0E6FA02A9B94801F058
:101C600057FB012240F22551B64801F074FB0121D7
:101C7000B44801F064FB08B010BDB248008810F011
:101C8000080F04D0AF49091D0988C8B200BFAD488C
:101C9000008810F0800F1ED0AA480C30008810F089
:101CA000800F18D0A84801780078401CA64A107010
:101CB000A648405CA349091D088010460078A44945
:101CC0000978884207D19F480C30008820F08000B6
:101CD0009C490C3108809B48008810F0200F6DD083
:101CE0009849091D0988C8B29A49097859B9AA289A
:101CF00046D19949994A127801EB421108700121A5
:101D0000944A11703CE09349097801290FD1AF281A
:101D100009D19149914A127801EB42114870022190
:101D20008C4A11702CE000218A4A117028E0894900
:101D30000978022909D18849884A127801EB4211B1
:101D400088700321834A11701AE0824909780329B7
:101D500009D18149814A127801EB4211C8700421EE
:101D60007C4A11700CE07C497C4A127801EB4211EC
:101D7000784A1278885477490978491C754A117055
:101D80007549764A127801EB4211C978491D714AAA
:101D90001278914211D100216E4A11706F49097871
:101DA00031B100216D4A117001216D4A117004E0BA
:101DB00001216A4A11706B4A117000BF704710B55B
:101DC0000446634801780078401C614A10705F48FF
:101DD00044545C480C30008810F0800F05D101227B
:101DE00040F22771574801F0B6FA204610BD31B5D0
:101DF00000249DF80110564802780078401C544B8E
:101E00001870524881549DF80020184601780078D7
:101E1000401C18704D4842544A480C30008810F05D
:101E2000800F05D1012240F22771464801F093FA54
:101E30009DF801002044C4B29DF800002044C4B2C3
:101E4000204638BD31B5002447490098086008464F
:101E5000C1783F4802780078401C3D4B18703B48E1
:101E6000815441488178184602780078401C1870E7
:101E7000364881543C484278184601780078401C26
:101E80001870324842543848017818460278007871
:101E9000401C18702D4881542A480C30008810F0DE
:101EA000800F05D1012240F22771264801F053FA34
:101EB0009DF803002044C4B29DF802002044C4B23F
:101EC0009DF801002044C4B29DF800002044C4B233
:101ED000204638BD10B504460FE020780D2802D109
:101EE000FFF76DFF08E020780A2802D1FFF767FFAF
:101EF00002E02078FFF763FF641C20780028ECD113
:101F000010BD70B504460D4600200AE0225C104961
:101F10000B780978491C0E4E31700C49CA54411C8B
:101F2000C8B2A842F2DB07480C30008810F0800FDE
:101F300005D1012240F22771024801F00CFA70BD70
:101F4000000801400038014028000020560300200E
:101F5000290000202B000020560400202A00002029
:101F60002D0000202C0000203000002008B50121A9
:101F7000084601F0A0F801214FF4037001F0A8F821
:101F80000320ADF8000000208DF803006946524898
:101F900000F0E8FD1F20ADF8000069464F4800F052
:101FA000E1FD08BD00B591B04D4802F097FA4D48EB
:101FB00006904D48079000200890072009900020C7
:101FC0000A9080200B9040000C9080000D90202003
:101FD0000E9000020F900020109006A9404802F0D9
:101FE0001FFB01213E4802F046FB0020019001202A
:101FF0008DF808008DF809004FF460200390002050
:10200000049007208DF8140001A936484C3802F0DE
:1020100064F84FF4004000F0C2FF052301220021C4
:1020200030484C3802F0F1F80523022201212D48F6
:102030004C3802F0EAF805230322022129484C38E3
:1020400002F0E3F805230422032126484C3802F06D
:10205000DCF805231A46042122484C3802F0D5F852
:102060000523062208211F484C3802F0CEF805232C
:10207000072209211B484C3802F0C7F801211948F2
:102080004C3802F061F8012116484C3802F051F842
:1020900014484C3802F06FF800BF12484C3802F078
:1020A0006FF80028F9D10F484C3802F073F800BFE0
:1020B0000C484C3802F073F80028F9D10121094886
:1020C0004C3802F076F811B000BD10B5FFF74EFFA6
:1020D000FFF768FF10BD0000000C01400008014040
:1020E000080002404C24014096040020704708B5C7
:1020F0000121042000F0ECFF4FF48050ADF8000007
:1021000003208DF8020014208DF803006946F6487C
:1021100000F028FD4FF40060ADF8000003208DF8BA
:10212000020014208DF803006946EF4800F01AFD04
:1021300008BD704700B501464FF48050EA4A14329A
:1021400010600846FFF7F5FF4FF40060E64A1432CE
:1021500010600846FFF7EDFF4FF48050E24A10325E
:1021600010600846FFF7E5FF4FF40060DE4A1032CA
:1021700010600846FFF7DDFF00BD00B501464FF4D3
:102180008050D94A143210600846FFF7D2FF4FF44E
:102190000060D54A103210600846FFF7CAFF4FF4BE
:1021A0008050D14A103210600846FFF7C2FFCE4877
:1021B0000830006810F4006F09D04FF48050CA4A0C
:1021C000143210600846FFF7B4FF002000BD4FF442
:1021D0008050C54A143210600846FFF7AAFF01205C
:1021E000F4E710B50246082320E04FF48050BE4CBF
:1021F000143420601046FFF79CFF11F0800F03D0CD
:10220000E014241F206004E04FF40060B64C143446
:1022100020604806010E1046FFF78BFF4FF48050F8
:10222000B14C103420601046FFF783FF1800A3F173
:102230000104E3B2D9D14FF48050AB4C1434206088
:1022400010BD00B501464FF40060A74A103210607F
:10225000400010600846FFF76CFFA3480830006894
:1022600008B9012000E0002010F4006F01D0002028
:1022700000BD4FF400609C4A143210600846FFF71E
:1022800058FF99480830006810F4006F01D0002012
:10229000EEE74FF40060944A143210600846FFF7EE
:1022A00048FF0120E4E7F0B506460F4614461D46F8
:1022B0003046FFF7C6FF08B90020F0BD394630466A
:1022C000FFF78FFF3046FFF758FF20B93046FFF782
:1022D00031FF0020F1E721463046FFF782FF30460C
:1022E000FFF74BFF29463046FFF77BFF3046FFF7ED
:1022F00044FF3046FFF71EFF0120DEE700B5014630
:102300004FF48050784A143210600846FFF711FFEE
:102310004FF40060744A103210600846FFF709FF5E
:102320004FF48050704A103210600846FFF701FFEA
:102330004FF480506C4A143210600846FFF7F9FEE3
:1023400000BD10B50246082300211802664C103467
:10235000206017E04806010E4FF48050624C1434A0
:1023600020601046FFF7E5FEA014241F20601046F1
:10237000FFF7DFFE5C480830006810F4006F01D002
:1023800041F001011800A3F10104E3B2E2D14FF4DE
:102390008050554C14342060084610BDF0B50646F8
:1023A0000C4615463046FFF74CFF08B90020F0BD3B
:1023B00021463046FFF715FF3046FFF7DEFE20B915
:1023C0003046FFF7B7FE0020F1E729463046FFF719
:1023D00008FF3046FFF7D1FE3046FFF732FF601CA2
:1023E000C1B23046FFF7FDFE3046FFF7C6FE30466D
:1023F000FFF7A7FF07463046FFF780FF3046FFF79D
:1024000099FE3846D3E700B501464FF48050364A6E
:10241000143210600846FFF78CFE4FF40060324A19
:10242000143210600846FFF784FE4FF480502E4AA5
:10243000103210600846FFF77CFE4FF480502A4AA5
:10244000143210600846FFF774FE00BD2DE9F0431A
:1024500081460E4617461C46DDF81C80B8F1010F78
:1024600002DA0020BDE8F0834846FFF7EAFE08B92B
:102470000020F7E731464846FFF7B3FE4846FFF72E
:102480007CFE20B94846FFF755FE0020EAE73946B2
:102490004846FFF7A6FE4846FFF76FFE4846FFF79F
:1024A000D0FE701CC1B24846FFF79BFE4846FFF7BE
:1024B00064FE012509E04846FFF743FF04F8010BDD
:1024C0004846FFF7A0FF681CC5B24545F3DB484608
:1024D000FFF737FF04F8010B4846FFF70FFF4846A8
:1024E000FFF728FE0120BDE70008014010B50446B3
:1024F0002046FFF7FBFD0446A01C02F081FE841E6F
:1025000004F1080002F07CFEA0F1080404F11C00B4
:1025100002F059FEA0F11C0404F1280002F053FE61
:10252000A0F1280404F1340002F04DFEA0F13404BF
:10253000204610BD30B50346C822002007E000BF8A
:102540001400A2F10105AAB2FAD1441CE0B28842FB
:10255000F5DB30BD2DE9F04107460D4616462A2E23
:1025600015D006DC052E0CD00A2E0CD0142E16D158
:102570000BE0622E0DD0BC2E0DD0B6F5807F0ED1B3
:102580000BE006240DE005240BE0042409E00324FD
:1025900007E0022405E0012403E0002401E0022416
:1025A00000BF00BF80236B22D0213846FFF77BFE9F
:1025B00005213846FFF7BEFF4FF47A7090FBF5F027
:1025C000401E00F0FF0843461922D0213846FFF78D
:1025D0006AFE03236B22D0213846FFF764FE0223F4
:1025E0003722D0213846FFF75EFE23461A22D0213B
:1025F0003846FFF758FE18231B22D0213846FFF734
:1026000052FE10231C22D0213846FFF74CFEBDE8B5
:10261000F0812DE9F04104462078002868D0E24896
:10262000007810F0010F09D1DF4802F0F5F828B169
:10263000DE4802F0C8FDDC48AFF30080DC480088CB
:1026400080B900231A461946A01C02F0DEFD0023C3
:102650001A461946D54802F0BBFD0120D44908802E
:10266000BDE8F08104F11C01D04802F0B5FDD0486E
:102670000088B0F5C87F36D1CD48008803F02CFB28
:102680000646CA490868314603F010FA054603F0C9
:10269000CFFA00B26080C648008803F01DFB0646F2
:1026A000C2494868314603F001FA054603F0C0FA12
:1026B00001B2A180BE48008803F00EFB0746BB496B
:1026C0008868394603F0F2F906464FF08B4103F073
:1026D0000BFD054603F0ACFA01B2E1800020B449DD
:1026E00008802070BCE7B2480088401CB0490880D0
:1026F00000BFB5E72DE9FC4104463C22D02120462D
:10270000FFF74CFEA0733B22D0212046FFF746FE88
:10271000E073A17BE07B41EA00206188401A00B2AF
:10272000ADF800003E22D0212046FFF737FE20748E
:102730003D22D0212046FFF731FE6074217C607C71
:1027400041EA0021A088081A00B2ADF80200402238
:10275000D0212046FFF722FEA0743F22D021204640
:10276000FFF71CFEE074A17CE07C41EA0021E088D8
:10277000081A00B2ADF80400BDF9040003F094FAA1
:102780000546BDF9020003F08FFA0646BDF90000C8
:1027900003F08AFA07462B463246394604F11C00FC
:1027A00002F016FD2046FFF734FFBDE8FC8170B54E
:1027B00004466078002863D07E48007810F0010F4E
:1027C00009D17C4802F028F828B17B4802F0FBFCD4
:1027D0007848AFF300807948008880B900231A4612
:1027E000194604F1080002F010FD00231A461946AC
:1027F000714802F0EDFC01207049088070BD04F1C1
:1028000028016D4802F0E8FC6C480088B0F57A7F3A
:1028100031D16A48008803F05FFA064666490868C5
:10282000314603F043F9054603F002FA00B2208175
:102830006248008803F050FA06465F49486831460E
:1028400003F034F9054603F0F3F901B261815B4806
:10285000008803F041FA064657498868314603F07C
:1028600025F9054603F0E4F901B2A181002053499E
:1028700008806070C2E751480088401C4F490880BA
:1028800000BFBBE72DE9FC4104464422D02120468D
:10289000FFF784FD20754322D0212046FFF77EFDFF
:1028A0006075217D607D41EA00202189401A00B2D7
:1028B000ADF800004622D0212046FFF76FFDA0753D
:1028C0004522D0212046FFF769FDE075A17DE07D1E
:1028D00041EA00216089081A00B2ADF802004822DE
:1028E000D0212046FFF75AFD20764722D0212046EE
:1028F000FFF754FD6076217E607E41EA0021A089C9
:10290000081A00B2ADF80400BDF9040003F0CCF9D8
:102910000546BDF9020003F0C7F90646BDF90000FF
:1029200003F0C2F907462B463246394604F1280027
:1029300002F04EFC2046FFF73AFFBDE8FC8110B5DF
:10294000D1E90834CA6980E81C0010BD10B5D1E98E
:102950000B348A6A80E81C0010BD70B505460C4631
:102960001749A06A03F000FA0646FEF7BFFB606352
:102970001349E06A03F0F8F90646FEF7B7FBA063D7
:102980000F49206B03F0F0F90646FEF7AFFBE0635A
:10299000D4E90E12606B85E8070070BD10B50948D8
:1029A000FFF7A4FD10BD000034000020A4040020A7
:1029B000380000203C000020B0040020400000202F
:1029C0008DC1793DBC04002031490143314A116079
:1029D000704770B5002100230F22C4780CB32D4C32
:1029E000246804F4E064C4F5E064210AC1F104033E
:1029F000CA40447804FA03F1847814402143090161
:102A0000254C0678A155047804F01F050124AC403C
:102A100005786D114FF0E02606EB8505C5F80041FD
:102A200009E0047804F01F050124AC401B4D067832
:102A3000761145F8264070BD194A0A400243154BED
:102A40001B1F1A60704739B1124A121D12680243E7
:102A5000104B1B1D1A6006E00E4A121D12688243BD
:102A60000C4B1B1D1A607047042808D14FF0E02161
:102A7000096941F004014FF0E022116107E04FF0D5
:102A8000E021096921F004014FF0E0221161704753
:102A90000000FA050CED00E000E400E080E100E059
:102AA00080FFFF1F10B50446CA48844208D10121A7
:102AB000042000F027FB0021042000F023FB46E067
:102AC000C548844208D10121082000F01BFB0021E9
:102AD000082000F017FB3AE0C048844208D10121E9
:102AE000102000F00FFB0021102000F00BFB2EE067
:102AF000BB48844208D10121202000F003FB0021C3
:102B0000202000F0FFFA22E0B648844208D10121DB
:102B1000402000F0F7FA0021402000F0F3FA16E020
:102B2000B148844208D10121802000F0EBFA002155
:102B3000802000F0E7FA0AE0AC48844207D1012186
:102B4000801500F0DFFA0021A01500F0DBFA10BDBF
:102B500010B50121084600F0D5FA0021012000F04F
:102B6000D1FA10BD2DE9F0410246002500260020D3
:102B700000230024002791F803C00CF00F0591F802
:102B800003C01CF0100F03D091F802C04CEA0505F9
:102B900091F800C0BCF1000F31D0146800202BE088
:102BA0004FF0010C0CFA00F3B1F800C00CEA030678
:102BB0009E4220D183004FF00F0C0CFA03F7BC4368
:102BC00005FA03FC4CEA040491F803C0BCF1280F99
:102BD00006D14FF0010C0CFA00FCC2F814C00AE058
:102BE00091F803C0BCF1480F05D14FF0010C0CFA6D
:102BF00000FCC2F810C0401C0828D1D31460B1F802
:102C000000C0BCF1FF0F34DD546800202EE000F15D
:102C1000080C4FF0010808FA0CF3B1F800C00CEAF8
:102C200003069E4221D183004FF00F0C0CFA03F7EC
:102C3000BC4305FA03FC4CEA040491F803C0BCF160
:102C4000280F05D100F1080C08FA0CF8C2F814801E
:102C500091F803C0BCF1480F07D100F1080C4FF008
:102C6000010808FA0CF8C2F81080401C0828CED3DE
:102C70005460BDE8F0814FF6FF7101800221817040
:102C80000421C17070470246002093680B4201D0B6
:102C9000012000E0002070470146886880B270473C
:102CA00002460020D3680B4201D0012000E0002042
:102CB00070470146C86880B2704701617047416142
:102CC00070470AB1016100E041617047C16070471F
:102CD0004FF480320A438261816182618269826934
:102CE000704702460020424B18684FF68073184028
:102CF00040EA021008433E4B186070473D49C861E6
:102D00007047F0B50A46002300240021002500F09A
:102D10000046B6F1004F02D1354EF16901E0344E64
:102D20007168C0F3034583B200F44016B6F5401F46
:102D300008D121F070612E4E766826F070662C4F17
:102D40007E6012E000F48016B6F5801F06D10326DF
:102D500006FA05F4A14341F0706106E0460D360124
:102D600003FA06F6B14341F0706122B1460D360117
:102D700003FA06F6314300F00046B6F1004F02D1E7
:102D80001B4EF16101E01A4E7160F0BD30B50022BA
:102D90008B071C0F0F2303FA04F2154B08338C101A
:102DA00053F824309343124C08348D1044F82530E6
:102DB00023468C1053F824308C07240F00FA04F4B7
:102DC00023430B4C08348D1044F8253030BD0A499C
:102DD0000860704700080140000C014000100140ED
:102DE0000014014000180140001C01400020014077
:102DF0000000014000002042DC002042DD48006865
:102E000040F00100DB49086008464068DA490840A4
:102E1000D849486008460068D8490840D549086044
:102E20000846006820F4802008600846406820F4C6
:102E3000FE0048604FF41F0088607047CD49096864
:102E400021F48031CB4A11601146096821F48021B8
:102E50001160B0F5803F03D0B0F5802F0ED106E0B1
:102E6000C449096841F48031C24A116007E0C14990
:102E7000096841F4A021BF4A116000E000BF00BF13
:102E8000704710B501460022002300204A11012A94
:102E900002D1B84C236806E0022A02D1B54C236A5D
:102EA00001E0B44C636A01F01F02012494401C420B
:102EB00001D0012000E0002010BD38B500200090B6
:102EC0000024002500BF3120FFF7DBFF05460098F6
:102ED000401C00900098B0F5A06F01D0002DF2D0FA
:102EE0003120FFF7CEFF08B1012400E00024204686
:102EF00038BD014600209F4A106820F0F80040EAE3
:102F0000C100106070479E4908607047024600206B
:102F1000984B586820F47C1042EA01031843954B03
:102F20005860704796490866704701460020914AEC
:102F3000506820F003000843506070478D48406897
:102F400000F00C007047014600208A4A506820F0CB
:102F5000F00008435060704701460020854A5068E1
:102F600020F4E06008435060704701460020814A29
:102F7000506820F4605040EAC1005060704729B1A9
:102F80007C4A527A02437B4B5A7204E0794A527A65
:102F90008243784B5A7270477A49086070470146FD
:102FA0000020744A506820F4404008435060704745
:102FB0000021754A11706F4A82F82010012802D052
:102FC000042808D103E001216F4A117004E00521B3
:102FD0006D4A117000E000BF00BF70476B49086088
:102FE00070476449096A0143624A11627047674940
:102FF00044390860704730B50021002200240023C6
:103000005C4D6D6805F00C0121B1042905D008293B
:1030100023D105E05E4D056022E05D4D05601FE0B7
:10302000544D6D6805F47012524D6D6805F480348E
:10303000022505EB92421CB9564D554305600BE045
:103040004C4D6D6815F4003F03D0524D554305605B
:1030500002E04F4D5543056002E04D4D056000BF55
:1030600000BF444D6D6805F0F00109094A4D6B5CE5
:103070000568DD4045603F4D6D6805F4E061090A73
:10308000454D6B5C4568DD4085603A4D6D6805F4E3
:103090006051C90A404D6B5C4568DD40C560354DE7
:1030A0006D6805F44041890B3C4D6B5CC568B5FB10
:1030B000F3F5056130BD29B12E4A526902432D4B0B
:1030C0005A6104E02B4A526982432A4B5A61704785
:1030D00029B1284A92690243264B9A6104E0254AA5
:1030E00092698243234B9A61704729B1214AD26980
:1030F0000243204BDA6104E01E4AD26982431D4B31
:10310000DA61704729B11B4AD2680243194BDA6071
:1031100004E0184AD2688243164BDA60704729B13E
:10312000144A12690243134B1A6104E0114A1269EE
:103130008243104B1A617047144940390860704748
:103140000F49C86470470B49C87170470948406A05
:1031500040F0807007494862704701460020054AE8
:1031600092680A4201D0012000E000207047014926
:1031700088727047001002400000FFF8FFFFF6FE63
:1031800000004242D80042422010024080044242E5
:1031900000127A0000093D00420000205200002089
:1031A00010B50446FB48844209D101218803FFF78A
:1031B000A9FF00214FF48040FFF7A4FF32E0F6485A
:1031C000844209D101214804FFF7A9FF00214FF4EF
:1031D0000030FFF7A4FF25E0F048844209D1012127
:1031E0008804FFF79CFF00214FF48020FFF797FF32
:1031F00018E0EB48844209D10121C804FFF78FFF92
:1032000000214FF40020FFF78AFF0BE0E5488442DD
:1032100008D101210805FFF782FF00214FF480103B
:10322000FFF77DFF10BD2DE9F04786B005460E463D
:103230000024A24600BFA1460027B08900B100BF0C
:103240002F462C8A4CF6FF700440F08804432C82F1
:10325000AC894EF6F3100440B08831890843718977
:1032600008430443AC81AC8A4FF6FF400440B08968
:103270000443AC8201A8FFF7BEFEC648874202D1D4
:10328000DDF810A001E0DDF80CA0A88910F4004FD3
:1032900008D00AEBCA0000EB0A1031684900B0FB05
:1032A000F1F807E00AEBCA0000EB0A103168890068
:1032B000B0FBF1F86420B8FBF0F0040120096421B0
:1032C00001FB1089A88910F4004F08D0322000EBD0
:1032D000C900B0FBF1F000F00700044308E0322021
:1032E00000EB09106421B0FBF1F000F00F00044383
:1032F0002C8106B0BDE8F0874FF416510160002123
:103300008180C18001810C21418100218181704730
:1033100010B502460020108A4FF2FF0318400B88B8
:103320004C8823438C882343CC8823431843108242
:1033300010BD0021018041808180C180704721B192
:10334000828942F40052828104E082894DF6FF7343
:103350001A4082817047F0B50346002400260025FC
:103360000020A1F510676A3F00D100BF1846C1F3E5
:10337000421401F01F06012707FA06F5012C01D1BE
:103380000C3004E0022C01D1103000E014301AB1EE
:1033900007682F43076002E00768AF430760F0BD8E
:1033A0001AB1838A0B43838202E0838A8B43838230
:1033B0007047028A4FF6F0731A400282028A0A436B
:1033C0000282704782894FF2FF731A40828182899C
:1033D0000A438281704721B1828942F002028281D0
:1033E00004E082894FF6FD731A4082817047028A99
:1033F0004FF6DF731A400282028A0A430282704744
:1034000021B1028A42F48042028204E0028A4BF631
:10341000FF731A4002827047C1F30802828070472E
:1034200001468888C0F308007047818941F0010196
:1034300081817047028BD2B20283028B42EA012261
:1034400002837047028B02F47F420283028B0A439D
:103450000283704721B1828A42F02002828204E016
:10346000828A4FF6DF731A408282704721B1828AC6
:1034700042F01002828204E0828A4FF6EF731A4013
:103480008282704721B1828A42F00802828204E07F
:10349000828A4FF6F7731A408282704721B182897F
:1034A00042F40042828103E08289C2F30E028281EB
:1034B000704721B1828A42F40062828204E0828AEB
:1034C0004FF2FF731A4082827047828A4FF6FB7375
:1034D0001A408282828A0A438282704721B1828A9C
:1034E00042F00202828204E0828A4FF6FD731A40A3
:1034F0008282704702460020B1F5007F00D100BFF4
:1035000013880B4201D0012000E00020704701F435
:103510000072B2F5007F00D100BFCA43028070473D
:1035200070B502460024002300250020A1F5106696
:103530006A3E00D100BFC1F3421501F01F0301260E
:1035400006FA03F3012D02D19689334006E0022DDD
:1035500002D1168A334001E0968A33400C120126CC
:1035600006FA04F41688344013B10CB1012000E0CF
:10357000002070BD10B500220023A1F510646A3C44
:1035800000D100BF0A1201249440A3B2DC4304809E
:1035900010BD0000003801400044004000480040D9
:1035A000004C00400050004001460020FE4A1068D8
:1035B00000F03800084310607047FB49096821F0AB
:1035C0000801F94A1160114609680143116070470A
:1035D000F549096821F01001F34A116011460968A4
:1035E000014311607047F148EF494860F048486076
:1035F0007047EE48EC494860ED4848607047EA483B
:10360000006940F08000E84908617047E6480069B9
:1036100040F08000E449086170470420E249C9682D
:1036200011F0010F01D001200EE0DF49C96811F04F
:10363000040F01D0022007E0DB49C96811F0100F28
:1036400001D0032000E00420704700B502460423A7
:10365000FFF7E3FF034603E0FFF7DFFF0346521ED9
:10366000012B01D1002AF7D102B90523184600BD6C
:1036700030B5044604254FF43020FFF7E6FF054639
:10368000042D17D1C848006940F00200C6490861FE
:1036900008464461006940F0400008614FF4302062
:1036A000FFF7D3FF0546C048006941F6FD710840A9
:1036B000BD490861284630BD10B504244FF43020C0
:1036C000FFF7C3FF0446042C16D1B748006940F049
:1036D0000400B54908610846006940F040000861EF
:1036E0004FF43020FFF7B1FF0446AF48006941F6C0
:1036F000FB710840AC490861204610BD00B5024688
:103700000423FFF78AFF034603E0FFF786FF034623
:10371000521E012B01D1002AF7D102B90523184608
:1037200000BD10B504244FF43020FFF7E7FF044636
:10373000042C16D19C48006940F004009A490861A5
:103740000846006940F0400008614FF43020FFF760
:10375000D5FF04469448006941F6FB710840924940
:103760000861204610BD00208F49C96911F0020F81
:1037700001D0012000E00020704730B5A5250424C9
:10378000FFF7F1FF00B100254FF43020FFF75DFF98
:103790000446042C3AD1854883498860844888606F
:1037A0000846006940F0200008610846006940F0C2
:1037B000400008614FF43020FFF747FF0446042C17
:1037C0001BD17948006941F6DF71084076490861EC
:1037D0000846006940F01000086176480580E00264
:1037E000FFF733FF0446052C10D06F48006941F6FF
:1037F000EF7108406C49086108E0052C06D06A4862
:10380000006941F6EF71084067490861204630BD04
:1038100078B506460C46042500200090E802FFF724
:1038200014FF0546042D24D15F48006940F00100D3
:103830005D4908613480E802FFF707FF0546042D63
:1038400010D1B01C0090200C00990880E802FFF70E
:10385000FCFE05465448006941F6FE710840524995
:10386000086106E05048006941F6FE7108404E4983
:103870000861284678BD70B504460D460426F0025E
:10388000FFF7E3FE0646042E11D14748006940F0D9
:103890000100454908612580F002FFF7D6FE064683
:1038A0004148006941F6FE7108403F4908613046D1
:1038B00070BD70B505460E460424E002FFF7C5FE54
:1038C0000446042C17D13948374988603848886045
:1038D0000846006940F0100008612E80E002FFF702
:1038E000B4FE0446052C06D02F48006941F6EF715E
:1038F00008402D490861204670BD2DE9F04304467B
:103900004FF6FF763746B046B1460425E443E6B2AB
:10391000C4F30727C4F307484FEA1469E802FFF726
:1039200094FE0546042D49D120481F49886020484F
:1039300088600846006940F010000861FF2E06D03C
:103940001C4808300680E802FFF77FFE0546042D7C
:1039500008D1FF2F06D017480A300780E802FFF78A
:1039600074FE0546042D0AD1B8F1FF0F07D01148A7
:103970000C30A0F80080E802FFF767FE0546042D32
:103980000AD1B9F1FF0F07D00A480E30A0F8009015
:10399000E802FFF75AFE0546052D0FD002480069E0
:1039A00041F6EF71084007E000200240230167451F
:1039B000AB89EFCD00F8FF1F664908612846BDE8D6
:1039C000F08330B5054604244FF43020FFF73DFE68
:1039D0000446042C41D160485E4988605F48886095
:1039E0000846006940F0200008610846006940F080
:1039F000400008614FF43020FFF727FE0446042CF6
:103A000022D15448006941F6DF71084051490861EC
:103A10000846006940F0100008611DB100205049BF
:103A2000088002E0A5204E4908804FF43020FFF7BF
:103A30000CFE0446052C10D04648006941F6EF7193
:103A400008404449086108E0052C06D04148006957
:103A500041F6DF7108403F490861204630BDF0B5AE
:103A600005460E46174604243B483A4988603B48C1
:103A70008860E002FFF7E9FD0446042C19D13548BF
:103A8000006940F010003349086147F0F800304306
:103A900028433349891C0880E002FFF7D6FD04461D
:103AA000052C06D02B48006941F6EF7108402949E2
:103AB00008612046F0BD2748C06980087047254846
:103AC000006A704700202349096811F0200F01D0D7
:103AD000012000E00020704729B11E4A126902430C
:103AE0001C4B1A6104E01B4A12698243194B1A618C
:103AF000704701460020012908D1164AD26912F008
:103B0000010F01D0012008E0002006E0114AD26830
:103B10000A4201D0012000E0002070470D49C86032
:103B2000704704200B49C96811F0010F01D0012032
:103B30000EE00849C96811F0040F01D0022007E027
:103B40000449C96811F0100F01D0032000E00420DF
:103B5000704700000020024023016745AB89EFCD8C
:103B600000F8FF1F0CB50020019000906B48006822
:103B700040F480306949086000BF6848006800F47C
:103B8000003000900198401C0190009818B90198ED
:103B9000B0F5A06FF1D16148006810F4003F02D089
:103BA0000120009001E0002000900098012842D1FF
:103BB0005B48006840F010005949086008460068FA
:103BC00020F0030008600846006840F0020008602A
:103BD0005248406851494860084640684860084675
:103BE000406840F4806048600846406820F47C10DB
:103BF00048600846406840F4E8104860084600689D
:103C000040F08070086000BF4448006810F0007FFA
:103C1000FAD04248406820F0030040494860084616
:103C2000406840F00200486000BF3C48406800F037
:103C30000C000828F9D10CBD10B5FFF793FF10BD9B
:103C400010B53648006840F0010034490860084665
:103C500040683449084031494860084600683249A4
:103C600008402E4908600846006820F4802008605B
:103C70000846406820F4FE0048604FF41F0088604A
:103C8000FFF7DAFF4FF000602849086010BD10B55B
:103C9000002100200022214B5B6803F00C0121B1C0
:103CA000042906D0082928D107E0214B214C2360A4
:103CB00027E01F4B1F4C236023E0184B5B6803F485
:103CC0007010164B5B6803F48032022303EB9040C4
:103CD00022B9194B4343174C23600DE00F4B5B682F
:103CE00013F4003F04D0144B4343124C236003E011
:103CF0000F4B43430F4C236003E00D4B0D4C2360EF
:103D000000BF00BF054B5B68C3F303130B4CE15CC2
:103D1000084B1B68CB40074C236010BD00100240CD
:103D2000002002400000FFF8FFFFF6FE08ED00E073
:103D300000127A005800002000093D005C000020BD
:103D40000948804709480047FEE7FEE7FEE7FEE72F
:103D5000FEE7FEE7FEE7FEE7FEE7FEE7044805496B
:103D6000054A064B70470000413C0008ED00000882
:103D700060050020600B0020600700206007002025
:103D800010B50446BE48844208D101218014FFF7D3
:103D9000B9F90021A014FFF7B5F916E0B94884423B
:103DA00008D101210014FFF7BAF900212014FFF710
:103DB000B6F90AE0B448844207D10121C013FFF7E5
:103DC000AEF90021E013FFF7AAF910BD10B50022EB
:103DD000028802F441520B884C8823438C88234389
:103DE000CC8823430C8923434C8923438C89234368
:103DF000CC8923431A430280838B4FF2FF74234004
:103E000083830B8A038210BD2DE9F04F85B00546F0
:103E10000C464FF0000902274FF000084FF0010B4D
:103E20000026B246A88B4FF240010840A88302202A
:103E30002884B5F81C90A068022801D100BF38E0A2
:103E4000A08810B94FF0010B01E04FF0020B8D4834
:103E5000854200D100E000BF6846FFF7CCF8DDF8EE
:103E600000A0E088B0F5007F0AD14FEA1A2000EBED
:103E700080004000A168B0FBF1F0401D86B20BE06D
:103E80004FEA4B10BAFBF0F000EB80004000A16855
:103E9000B0FBF1F0401D86B20A20B6FBF0F606F04A
:103EA0000108A6EB0800C0F34F074FF6FF7000EAC9
:103EB0000828022F01DBFF2F02DD02274FF0000848
:103EC000E08840EA080038432884A088A189084394
:103ED000618808432188084340F4006040EA0909EA
:103EE000A5F81C9005B0BDE8F08F0021018041804D
:103EF0008180C180018141818181C181072101824D
:103F000070470021018041808180C1800221816051
:103F100000218181704721B1028842F04002028075
:103F200004E002884FF6BF731A400280704721B147
:103F3000828B42F48062828304E0828B4FF6FF33EF
:103F40001A408283704730B5002400230C110125EC
:103F5000A540ABB21AB185881D43858002E08588F3
:103F60009D43858030BD1AB183880B43838002E076
:103F700083888B438380704781817047014688899D
:103F80007047A1F57E42FF3A04D0028842F4807265
:103F9000028004E002884FF6FF631A4002807047F7
:103FA00021B1828842F00402828004E082884FF6C8
:103FB000FB731A408280704702884FF2FF731A40E9
:103FC000028002880A4302807047018841F48051D0
:103FD0000180704721B1028842F40052028004E05F
:103FE00002884DF6FF731A40028070470246002097
:103FF000012901D0108B00E0908A70470146088AA1
:104000007047B1F5804F04D1028842F480420280AB
:1040100004E002884BF6FF731A40028070470246A4
:10402000002013890B4201D0012000E000207047DE
:10403000CA4302817047F0B50246002000240023E5
:10404000002501F00F070126BE40B4B20B11012676
:104050009E40B3B2968806EA03051689264202D02E
:104060000DB1012000E00020F0BD10B5002201F0EC
:104070000F040123A3409AB2D343038110BD000073
:104080000030014000380040003C004010B50446BC
:10409000FA48844208D101214015FFF733F8002186
:1040A0006015FFF72FF817E0F548844208D1012189
:1040B0000015FFF727F800212015FFF723F80BE084
:1040C000F048844208D10121C803FFF71BF8002102
:1040D0004FF40040FFF716F810BD30B5024600203F
:1040E00000235068E84C20400D790C6844EA052410
:1040F000204350609068E54C2040D1E902542C43A5
:104100004D7944EA450420439060D06A20F4700061
:104110000C7C641EE4B2234340EA0350D06230BDFD
:1041200000210160017141718160C1600121017450
:10413000704721B1826842F00102826003E0826828
:1041400022F001028260704721B1826842F48072DD
:10415000826003E0826822F480728260704710B54A
:104160000023CBB21AB144681C43446002E04468A7
:104170009C43446010BD816841F008018160704734
:10418000014600208A6812F0080F01D0012000E0EB
:1041900000207047816841F004018160704701464A
:1041A00000208A6812F0040F01D0012000E00020F6
:1041B000704721B1826842F4A002826003E0826805
:1041C00022F4A00282607047014600208A6812F43F
:1041D000800F01D0012000E00020704710B50A4692
:1041E00000210023416821F46041531E41EA43311C
:1041F000416010BD21B1426842F40062426003E0B8
:10420000426822F4006242607047F0B504460D46F1
:1042100000200021092D11DDE068A5F10A0606EB5A
:104220004607072606FA07F18843A5F10A0606EBBA
:10423000460603FA06F10843E0600CE0206905EB4E
:104240004507072606FA07F1884305EB450603FAFA
:1042500006F108432061072A0FDA606B561E06EB51
:1042600086071F2606FA07F18843561E06EB8606C8
:1042700005FA06F10843606322E00D2A0FDA206B8D
:10428000D61F06EB86071F2606FA07F18843D61FBE
:1042900006EB860605FA06F10843206310E0E06AA3
:1042A000A2F10D0606EB86071F2606FA07F18843E2
:1042B000A2F10D0606EB860605FA06F10843E06258
:1042C000F0BD21B1826842F48012826003E082680E
:1042D00022F48012826070470146C86C80B2704739
:1042E00066484C300068704721B1426842F48062F1
:1042F000426003E0426822F480624260704721B16C
:10430000426842F48052426003E0426822F48052E4
:10431000426070470A460021816821F4E041114360
:104320008160704721B1826842F40042826003E0FC
:10433000826822F400428260704721B1826842F4B0
:104340000212826003E0826822F4021282607047E7
:10435000014600208A6812F4001F01D0012000E00D
:1043600000207047F0B504461546002000220026C4
:10437000092911DDE068A1F10A0707EB470C0727BF
:1043800007FA0CF29043A1F10A0707EB470703FA7B
:1043900007F21043E0600CE0206901EB410C0727B5
:1043A00007FA0CF2904301EB410703FA07F21043BE
:1043B0002061A06BC0F30156EF1C06F1010CA7EBC6
:1043C0000C0707EB870C1F2707FA0CF29043EF1C32
:1043D00006F1010CA7EB0C0707EB870701FA07F2C0
:1043E0001043A063F0BD10B50A4600210023816B85
:1043F00021F44011531E41EA0351816310BD08B5F9
:10440000002300930090009B0B440093009B1A60D4
:1044100008BD08B5024600200090009201F1280076
:10442000009B184400900098006880B208BD0A46BE
:1044300000214168164B19401143416070474162A9
:10444000826270470A460021416821F01F01114332
:104450004160704740B109490831096841F40001E1
:10446000064A0832116007E004490831096821F45E
:104470000001024A08321160704700000024014028
:1044800000280140003C0140FFFEF0FFFDF7F1FF76
:10449000FFFD3FFF0246002013680B4201D00120C0
:1044A00000E000207047CA430260704770B50246C2
:1044B0000020002300240B125568CEB205EA060442
:1044C00015681D4202D00CB1012000E0002070BD33
:1044D00000220A12D34303607047000001684FF6C0
:1044E000FE72114001600021016041608160C16085
:1044F0008C49884208D18B490839496841F00F013D
:10450000884A083A51608AE086491431884208D1C5
:1045100084490839496841F0F001824A083A5160FB
:104520007DE080492831884208D17E4908394968B0
:1045300041F470617B4A083A516070E079493C313E
:10454000884208D177490839496841F47041754A71
:10455000083A516063E073495031884208D171498B
:104560000839496841F470216E4A083A516056E0B2
:104570006C496431884208D16A490839496841F474
:104580007001684A083A516049E0664978318842CA
:1045900008D164490839496841F07061614A083AB4
:1045A00051603CE06049884206D1011F096841F032
:1045B0000F01021F116032E05B491431884208D1BB
:1045C0005949091F096841F0F001574A121F11604B
:1045D00025E055492831884208D15349091F096807
:1045E00041F47061504A121F116018E04E493C318D
:1045F000884208D14C49091F096841F470414A4A70
:10460000121F11600BE048495031884207D14649DA
:10461000091F096841F47021434A121F1160704755
:1046200010B50022026847F6F0739A430C6A8B6853
:1046300023430C6923434C6923438C692343CC698E
:1046400023434C6A23438C6A23431A430260CB689A
:1046500043600B6883604B68C36010BD002101603C
:1046600041608160C160016141618161C16101623C
:1046700041628162704721B1026842F0010202602A
:1046800004E002684FF6FE731A40026070471AB1E8
:1046900003680B43036002E003688B4303607047C9
:1046A000416070470146486880B27047014600206B
:1046B000002211F0805F03D01B4B083B1A6802E018
:1046C000184B083B1A680A4201D0012000E0002084
:1046D000704710F0805F03D01349091F086002E0A3
:1046E000104908394860704701460020002211F047
:1046F000805F03D00C4B083B1A6802E0094B083B73
:104700001A680A4201D0012000E00020704710F032
:10471000805F03D00449091F086002E0014908399D
:104720004860704708000240080402407047704724
:104730007047000070B5064C7C44064D7D4403E094
:10474000206820448047241DAC42F9D170BD000090
:10475000D81B0000E81B000010B500F009F8006845
:1047600010BD10B5044600F003F8046010BD000051
:1047700000487047FC04002000487047FC040020FB
:104780007546FFF7F9FFAE4605006946534620F02F
:104790000700854618B020B5FFF7E0FABDE82040D5
:1047A0004FF000064FF000074FF000084FF0000BED
:1047B00021F00701AC46ACE8C009ACE8C009ACE8A0
:1047C000C009ACE8C0098D4670470446AFF30080CD
:1047D0002046FBF7D4FC704701491820ABBEFEE72A
:1047E000260002004100080218BF04200A0E18BF6C
:1047F00040F001004FF07F4232EA010108BF40F073
:104800000200012808BF05207047014621F0004042
:10481000C0F1FF40C00F7047016809B10020704728
:1048200001210160084670476FF05E01080701F042
:1048300002BD00002DE9F04D0E4614464FF07F41B9
:10484000B1EB440F9EBF4FF0FF313160BDE8F08DFA
:104850004FF0004040EA0421C4F3C75078384311B8
:1048600000F01F00DFF814C1C0F12002FC445CF826
:1048700023500CEB83038540D3F804C02CFA02F7D5
:104880002F439D680CFA00FC25FA02F8DB6805FA54
:1048900000F023FA02F240EA02054CEA080CA7FBFA
:1048A0000132ACFB01C0A5FB015101EB0C058D42AF
:1048B00034BF4FF0010C4FF0000CC1186144BCF143
:1048C000000F02D0814202D903E0814201D20120CF
:1048D00000E00020104400F120024FEA9218800608
:1048E000CA0C40EA42304F03C6F8008001F0DCF900
:1048F0008246384601F0F0F96FF0120101F09BFC9E
:104900000746284601F0E8F96FF0250101F093FC15
:1049100083463946504601F055F8594601F052F8A1
:1049200000F500656FF30B055146284601F0DCFBEE
:10493000394601F0D9FB594601F044FB104901F01A
:1049400013FA07460F49284601F00EFA394601F0DE
:1049500039F807460C49284601F006FA394601F0B5
:1049600031F814F0004F08BFBDE8F08DC8F1805158
:1049700080F000403160BDE8F08D0000641A000056
:10498000DB0FC92F22AAFD290000C92F2DE9F04114
:1049900004464FF00E4000EB4400B0F1506F20464B
:1049A00020D94FF0E441B1EB440F08D9FFF71AFFCB
:1049B000042808BFFFF738FF2046BDE8F0814FF01C
:1049C0007F41B1EB440F04D2BDE8F041012101F079
:1049D00032BC0120FFF7C5FEBDE8F04100210846CA
:1049E00001F064B84FF0FC41B1EB440F1CD224F04D
:1049F00000404FF07E5101F0E5FA4FF0FF3101F039
:104A00001AFC074600F006FB14F0004F1DBF204EB5
:104A1000204D80F00040204E08BF204D4FF0404117
:104A200001F0A2F9044605E000263546014601F0F2
:104A30009BF907461A49384601F096F9194900F0E2
:104A4000C1FF394601F090F9174900F0BBFF394624
:104A500001F08AF9154900F0B5FF394601F084F9F3
:104A6000134900F0AFFF80463946204601F07CF93B
:104A7000414601F079F907462946204600F0A2FF99
:104A8000394600F09FFF3146BDE8F04100F09ABF83
:104A90000000C9BF22AAFDB90000C93F22AAFD3902
:104AA00024FE1C3DC78AD83C1E67383D1B93993DA8
:104AB000AFAA2A3E2DE9F0474FF0684202EB4003CF
:104AC0000C460546B3F1654F3CBF02EB4102B2F123
:104AD000654F3FD34FF07F42B2EB400F28BFB2EBA0
:104AE000410F03D2BDE8F04700F06CBF40EA01037C
:104AF0005B0008BF44F0FF410AD0B2EB400F08BF93
:104B0000B2EB410F06D125F0804024F080410546EC
:104B10000C461FE0B2EB400F12BF5FEA410245F0C6
:104B2000FF4004F0004115D04FEA410292EA4003F1
:104B300010D4002AB4BF4FF03E564FF09F46314686
:104B400001F012F905463146204601F00DF9044600
:104B500028462146C0F3C753C1F3C7529A1A1B2AED
:104B600006DD10F0004F14BF54485548BDE8F087EB
:104B700012F11A0F17DA11F0004F06D010F0004FA3
:104B80000CBF50485048BDE8F0872146284600F049
:104B90008DFF0446FFF726FE042808BFFFF744FEFA
:104BA0002046BDE8F0874200B2EB410F25D910F056
:104BB000004F19BF454F464E464F474E224685F09F
:104BC000004415460A4680F0004110460A1A520079
:104BD000B2F1807F3ED248404049DFF804A110F096
:104BE000004F18D04FF03F48384601F07DFA074695
:104BF0005146304601F078FA17E011F0004F04BF3B
:104C000000263746E2D010F0004F19BF354F364E20
:104C1000364F374EDAE74FF07C58384600F0D2FE78
:104C200007465146304600F0CDFE0646414628462E
:104C300001F09AF8214600F0C5FE82462146404622
:104C400001F092F8294601F0BDF9514600F02EFF1F
:104C5000044604E02146284600F028FF04460146A9
:104C600001F082F88046234901F07EF8224900F0E5
:104C7000A9FE414601F078F8204900F0A3FE414624
:104C800001F072F81E4900F09DFE414601F06CF8FB
:104C90001C4900F097FE05464146204601F064F8A5
:104CA000294601F061F8314600F08CFE214600F003
:104CB00089FE3946BDE8F04700F084BEDB0FC9BF6E
:104CC000DB0FC93FDB0F4940DB0F49C00000C9BF04
:104CD00022AAFDB90000C93F22AAFD390060ED3EBD
:104CE000C30ACE37000049C022AA7DBA000049405D
:104CF00022AA7D3A2DAD65BD8FB8D53D0FB511BE49
:104D000061C84C3EA8AAAABE2DE9F8430446024653
:104D100050486946B0EB420F09D94FF0E640B0EB7E
:104D2000420F94BF00204FF0FF30009034E04A4B18
:104D300022F0004083422BD94849204601F014F864
:104D400001F010F9804600F073FF00F003000090BE
:104D50004349404601F008F805464249404601F003
:104D600003F806464049404600F0FEFF07463F492B
:104D7000404600F0F9FF214601F024F9394601F0E0
:104D8000B3F9314601F0B0F9294601F0ADF902E07E
:104D90001046FFF74FFD04462546009C002C18DA0C
:104DA0006800B0F17F4F3CBF4FF07E50BDE8F88304
:104DB00009D14FF00100FFF7D4FCBDE8F843002112
:104DC000084600F073BE2846BDE8F843012101F013
:104DD00032BA294614F0010F08461CD000F0C4FF77
:104DE0000646234900F0C0FF224901F0EBF83146A6
:104DF00000F0BAFF204900F0E5FD314600F0B4FFB5
:104E0000294600F0B1FF294600F0DCFD14F0020F46
:104E10001CD0BDE8F88300F0A7FF0546174900F055
:104E2000A3FF174900F0CEFD294600F09DFF15496C
:104E300000F0C8FD294600F097FF4FF07E5100F0CA
:104E4000C1FD14F0020F08BFBDE8F88380F00040F8
:104E5000BDE8F883B61F927E490E494683F9223F8A
:104E60001A61342C0020A23300A0FD390000C93F94
:104E7000336D4C39DA82083CA0AA2ABEB93AB2BADC
:104E8000CA9F2A3DDDFFFFBE2DE9F84304460246D6
:104E900053486946B0EB420F09D94FF0E640B0EBFA
:104EA000420F94BF00204FF0FF30009034E04D4B94
:104EB00022F0004083422BD94B49204600F054FF9A
:104EC00001F050F8804600F0B3FE00F003000090BF
:104ED0004649404600F048FF05464549404600F037
:104EE00043FF06464349404600F03EFF074642491D
:104EF000404600F039FF214601F064F8394601F0E0
:104F0000F3F8314601F0F0F8294601F0EDF802E03F
:104F10001046FFF78FFC04462546009C002C1DDA46
:104F20006800B0F17F4F09D22846FFF75BFC0428E8
:104F300008BFFFF779FC2846BDE8F88308D10120B7
:104F4000FFF70FFCBDE8F8430021084600F0AEBDB6
:104F50002846BDE8F843012101F06DB9294614F057
:104F6000010F08461ED000F0FFFE0546234900F061
:104F7000FBFE234900F026FD294600F0F5FE2149FD
:104F800000F020FD294600F0EFFE4FF07E5100F0CA
:104F900019FD14F0020F08BFBDE8F88380F000404F
:104FA000BDE8F88300F0E0FE0646174900F0DCFE9D
:104FB000164901F007F8314600F0D6FE144900F01A
:104FC00001FD314600F0D0FE294600F0CDFE294615
:104FD00000F0F8FC14F0020FE0D1BDE8F883000007
:104FE000B61F927E490E494683F9223F1A61342C3E
:104FF0000020A23300A0FD390000C93FB93AB2BA7F
:10500000CA9F2A3DDDFFFFBE336D4C39DA82083C72
:10501000A0AA2ABE70B5054600F0DEFF044620F0C7
:105020000040C0F1FF40C00F08D025F00040C0F1A3
:10503000FF40C00F04BF0120FFF793FB204670BD67
:105040002DE9FE4F04460D462868FFF71DFF074671
:105050002868FFF759FE02906868FFF715FF804641
:105060006868FFF751FE0646A868FFF70DFF01903C
:10507000A868FFF749FE00903046009900F074FEE2
:105080002060DDE9011000F06FFE8246414638469F
:1050900000F06AFE8346009900F066FE81465146A4
:1050A00000F090FC60603846019900F05DFE824699
:1050B0004146029800F058FE8346009900F054FEE5
:1050C00080F000495146484600F07CFCA06086F024
:1050D00000494846019900F047FEE06000990298B7
:1050E00000F042FE82464146384600F03DFE8346CF
:1050F000019900F039FE80F000495146484600F021
:1051000061FC20613846009900F02EFE824641463F
:10511000029800F029FE8346019900F025FE8146A1
:10512000514600F04FFC6061C4F8188087F00049D8
:105130003146484600F018FEE0613146029800F022
:1051400013FE2062BDE8FE8F2DE9F05F04460D4698
:10515000A168084600F008FE81462168084600F074
:1051600003FE8246494600F02DFC8046FFF752FFC1
:10517000074639466068FFF79DFC0646FBF7BDFF12
:105180002860A168084600F0EFFD82466168084685
:1051900000F0EAFD8346514600F014FC8146FFF71B
:1051A00039FF0746206880F0004839464046FFF73F
:1051B00081FC0646FBF7A1FF6860BDE8F09F016037
:1051C00042608360704700218160416001607047E8
:1051D000016042608360704770B504460D462968DF
:1051E000206800F0EFFB20606968606800F0EAFB6F
:1051F0006060A968A06800F0E5FBA060204670BD73
:10520000002181804180018070470180428083803D
:1052100070472DE9FC5F06460C461546A968206AD2
:1052200000F0A2FD01906968E06900F09DFD8346F1
:105230002968A06900F098FD5946009000F0C2FB73
:105240008246019900F0BEFB0746A968606900F03C
:105250008BFD01906968206900F086FD834629680E
:10526000E06800F081FD5946009000F0ABFB8246FB
:10527000019900F0A7FB8046A968A06800F074FDC2
:1052800001906968606800F06FFD009029682068EF
:1052900000F06AFD8346009900F094FB8246019974
:1052A00000F090FB81463B46424649463046FFF7B8
:1052B00086FFBDE8FC9F2DE9F04706460C461546E3
:1052C000A968A06800F010FF07466968606800F0F0
:1052D0000BFF80462968206800F006FF81463B46A8
:1052E000424649463046FFF76AFFBDE8F0872DE9A0
:1052F000F04706460C4615462946A06800F034FDE6
:1053000007462946606800F02FFD80462946206840
:1053100000F02AFD81463B46424649463046FFF7AB
:105320004EFFBDE8F0872DE9F04706460C461546CE
:10533000A968A06800F046FB07466968606800F04D
:1053400041FB80462968206800F03CFB81463B46D3
:10535000424649463046FFF732FFBDE8F08700007D
:1053600021F00042A2F16052B2F5801F01F000432B
:1053700028BFD2F17F6C0BD95FEA001C43EAC2025E
:1053800042EB507018BF704728BF20F001007047F3
:10539000B2F5801FBCBF184670474FEA410C1CF5A0
:1053A000001F02D2084600F0A6BD70B500F0A0F9BB
:1053B00000000089FFF7F6BF4FF00040A0F5800025
:1053C0007047000010B591EA030F48BF83F0004317
:1053D00000F1EA81841A71EB030C05D2121943EB38
:1053E0000C03001B61EB0C01DFF824E14FEA1154C0
:1053F000A4EB135C1EEA430F18BF9EEA445F73D010
:1054000023EA0E03DCF1200E21EA045143F4801359
:1054100032D322FA0CFE10EB0E0023FA0CFE41EB05
:105420000E01CCF1200E03FA0EFE10EB0E0051F12E
:105430000001B1F5801FCCF1200E32D201EB0451F6
:1054400012FA0EF2BDE8104058BF7047401C38BF3A
:105450005FEA420218BF7047002814BF20F0010025
:1054600041F100014FEA410313F5001F38BF7047B7
:10547000A1F1C04100F08AB9012A43EB0302ACF16B
:10548000200CDCF11F0E32BF4FF0000E23FA0CF39C
:1054900010EB030041EB0451B4EB115FD0D0A1EB52
:1054A000045101F5801149085FEA300001EB045115
:1054B0000ED350F1000038BF12FA0EFE08D1BDE83D
:1054C0001040C9E7401C38BF5FEA4202CAD1C3E7B7
:1054D000BDE810404FEA410313F5001F38BF704785
:1054E000A1F1C04100F052B99EEA445F08D011EA30
:1054F0005E0FBDE8104004BF01F00041002070477E
:10550000BDE8104070B500F0F3F800BF64FBBE3E8C
:105510000000E0FF4FEA1153A3F58063D3F11E03AF
:10552000A8BFD3F1200C08DB4FF0004242EAC122B1
:1055300052EA505232FA03F0704709420BD4102B52
:10554000C4BF0020704703F5787CBCF1FF3F05D055
:105550004FF0FF3070474FF00000704770B500F01B
:10556000C7F800BF4992248000207047F0E710F090
:10557000004248BF4042B0FA80F310FA03F10AD06B
:10558000C3F11D0303F580634FEA415002EB035260
:1055900002EBD12170474FF000007047DFF848C19F
:1055A00070B51CEA111E1EBF1CEA13159EEA0C0FF3
:1055B00095EA0C0F00F06F8081EA030423EA4C1394
:1055C0004EEAD47E21EA4C1141F4801143F4801359
:1055D000AE44A1FB024CA0FB0365AEF17F7E361901
:1055E00055EB0C05A1FB034C4CF10003A0FB021C86
:1055F00016EB0C06654153F10003094218BF46F053
:10560000010613F4007F0BD14FEA03314FEA053056
:10561000340341EA155140EA16506FF003020AE0E4
:105620004FEAC3214FEAC520F40241EA555140EA4E
:1056300056506FF0020202EB2E4201EB025585EA52
:10564000CE710AD05FEA440C18BF24F0004450F138
:10565000000041F1000120EAD47040F2FE7C624576
:1056600000D270BDA84214BF4FF080444FF04044B8
:10567000002E08BF0024BEF1806FA8BFA1F1C04179
:10568000BDE8704080F282804FF0000001F1C0411F
:1056900001F0004170479EEA0C0F0CEA131518BF89
:1056A00095EA0C0F06D04FF0000081EA030E0EF0D1
:1056B000004170BD00F01CF88900013E00F007B801
:1056C00000F009B84FEA430C5FEA5C5C08D081EA5D
:1056D000030100F05BB84FEA410C5FEA5C5CF6D175
:1056E0004FF00000014970470000FF070000F87FFD
:1056F0000EF1020E2EF0030E5EF8046B364205D456
:10570000012A43EB030515F5001F12D8012841EBD0
:10571000010C1CF5001F0CD80ED14FEAD17C15F5F9
:10572000001F0CEB4C0C0CF1020C08BF4CEBD37CB3
:1057300004E04FF0080C01E04FEAD37C0CEB4C0581
:1057400026FA05F606F00706B6F1040C06D20EEBB3
:10575000860CBDE870404CF0010C6047DFE80CF0AF
:10576000090B02024FF000414FF00000A1F50021AB
:1057700070BD19461046012851EB010418BFD4F53D
:10578000001484BF002001F0004170BD0808A0F59E
:1057900000114FEA3101704710B591EA030F48BF7D
:1057A00083F000433FF516AE841A71EB030C07D269
:1057B00012198CF0004C43EB0C03001B61EB0C0145
:1057C000DFF8A4E14FEA1154A4EB135C1EEA430F87
:1057D00018BF9EEA445F00F0B08023EA6E03524295
:1057E00021EA0451C3EB6E0338BF5B1EDCF1200ECF
:1057F00025D322FA0CFE10EB0E0043FA0CFE41EB0F
:105800000E01CCF1200E03FA0EFE10EB0E0051F14A
:105810000001CCF1200E29D412FA0EF201EB045152
:10582000BDE8104058BF7047401C1CBFB2F1004F8C
:10583000704700280CBF491C20F00100704712EB94
:10584000020E43EB030218BF4FF0010E4EEA420274
:10585000ACF1200CDCF11E0E54D943FA0CFE10EB17
:105860000E0051F1FF31CCF11E0ED5D50EF1010E17
:1058700012FA0EFE404141EB010101EB445C5FEA8C
:105880005C5C10D910EBDE7001EB045138BFBEF147
:10589000004FBDE8104018BF704700280CBF491CDE
:1058A00020F00100704730D24FEAD42C11F50011DE
:1058B00024F400641BD0B1FA81F20B3AA41AA41E9E
:1058C000D2F12003914030FA03F31943904001EBE9
:1058D000CC71002C01EB0451BDE81040A8BF70470B
:1058E00001F1C0414FF0000001F000417047B0FAF3
:1058F00080F310FA03F100D110BDE41A173C4805FB
:10590000C90AE4E701EB045110BD491001EB045151
:10591000BDE810404FEA300002E04FF00001704750
:105920004A0008BF0042F8D0B2F5001F28BF7047F8
:1059300001F000414FF0000070479EEA445F07D03D
:1059400011EA5E0FBDE8104004BF0021002070473F
:10595000BDE8104070B5FFF7CBFE00BF40DFF63E5C
:1059600083F00041104670470000E0FF43004FEA1B
:10597000D30C4FEA3C0C43401FBF40070CF1605171
:1059800013F0FE4F70471CF0006F03D100200CF0A5
:10599000004170470CF0004343EA507010B540EAF4
:1059A000CC0000F062FA00BF000000924FEA000154
:1059B000FFF7ECBE4FF000414FF00000A1F50021D1
:1059C0007047000090EA010F48BF81F0004100F1EC
:1059D0009283421A3CBF801A89184FEAD0524FF086
:1059E0007F4C1CEA410FA2EBD15318BF9CEA026F17
:1059F00000F03B804FF0004C4CEA00204CEA0121C3
:105A000021FA03FC10EB0C0C1ED202F1FF325FEA0C
:105A10001C2040EBC25038BF70471CF07F0F4FEA8C
:105A2000400C18BFBCF17F4F38BF7047C3F1200353
:105A3000994008BF20F00100BCF17F4F38BF70478C
:105A4000A0F1C04000F057BA4FEA3C00000A40EB1A
:105A5000C25028BF1CF0FF0F4FEA400CE6D018BF21
:105A6000BCF17F4F38BF7047EAE79CEA026F05D070
:105A700010EA5C0F08BF00F00040704710B500F05E
:105A8000F4F900BF64FBBE3E014800F0A2BB00BFBA
:105A90000000C07F401058BFC0F14040491058BFBF
:105AA000C1F140418142EFF3008070474FF47F0C19
:105AB0001CEAD0121EBF1CEAD11392EA0C0F93EA23
:105AC0000C0F00F0858090EA010F48BF42F480720D
:105AD00040F4000C41F400002CF07F4120F07F40A6
